:0300000002008A71
:0C008A00787FE4F6D8FD75810D020003BC
:10000300750800750901E4F50AF50BF50CF50DE427
:10001300F508F509C3E5099464E50894005019C28D
:1000230090AF09AE08120071120064E5092509F5C5
:1000330009E50833F50880DC12007CD3E509940157
:10004300E50894004013C290AF09AE081200711284
:100053000064E4F509F50880E212007C12007C805C
:01006300AEEE
:0D006400D290C374D19509FF74079508FE72
:0B007100EF1FAC0670011E4C70F62261
:0D007C00007F027E677D93DDFEDEFCDFFA73
:010089002254
:00000001FF
