:030000000201E119
:0C01E100787FE4F6D8FD75810D0202283D
:0C034900010900010801010B0A010A0073
:100338005389F0438901758A66758CFCC28DD28C0D
:010348002292
:0B035600EF1FAC0670011E4C70F62279
:080361007F097EF4DEFEDFFCE3
:010369002271
:10026D0020A00E12036112036120A0050509530998
:10027D000120A11120A10E30A1FD0508E50875F0A2
:10028D000A8485F008E509702E20A31420A31130EF
:10029D00A3FDE50B2405F50BC3940F4003750B0F60
:1002AD0020A21420A21130A2FD74FB250BF50BD357
:0802BD0094005003750B0522AB
:03000B0002030BE2
:10030B00C0E0C0D0758A66758CFC050AE50AB50C91
:10031B0002D290E50AB50D02D291E50AC3940F40C3
:0D032B0007C290C291750A00D0D0D0E03218
:1002C500120338D2AFD2A9D2A8D288AC08E4120161
:1002D5001E7BCD7ACC79CC783D12000EC004C005CA
:1002E500C006C007AC0BE412011ED003D002D0013A
:1002F500D00012000E1201528F0CC3E50B950CF5C0
:060305000D12026D80C51F
:10000E00EC4D6011E8497017ED33EC3304600DE4EC
:10001E00FCFFFEFD22E933E8330470F80201BE1244
:10002E00018958046009E4CC248150062850090245
:10003E0001C82840030201C5C0E0EB4A7044B980F4
:10004E0006D0E0FB0201B4EF4E701CBD8008EBFF42
:10005E00EAFEE9FD80EBE98DF0A4FEE5F00200F783
:10006E00E9CDF9EAFEEBFFEF89F0A4FCE5F0CE89CD
:10007E00F0A42EFFE435F0CD89F0A42DFEE435F08A
:10008E008067EF4E7005BD80D780C3EF8BF0A4ACB8
:10009E00F0EE8BF0A42CFCE435F0F8EF8AF0A42CF3
:1000AE00E5F038FCE433CB8DF0A42CFCE5F03BF806
:1000BE00EE8AF0A42CFCE5F038F8E433CF89F0A4F6
:1000CE002CFCE5F038CF3400CE89F0A42FFFE5F0FC
:1000DE003EFEE433C98DF0A42EFEE5F039CD8AF054
:1000EE00A42FFFE5F03EFEE43DFD33D0E0FB5007CC
:1000FE000BBB000F0201C8EC2CFCEF33FFEE33FEFE
:06010E00ED33FD0201A02B
:1001140075F020800E75F010800575F0087D007E66
:10012400007F003392D530D5031201D3EC33401055
:10013400EF33FFEE33FEED33FDEC33FCD5F0ED226F
:0E014400E5F0247EA2D513CC92E7CDCEFF22AB
:10015200EDD2E7CD33EC3392D524814006E4FFFEA5
:10016200FDFC22FCE4CFCECDCC24E0501174FF8004
:10017200EDC3CC13CCCD13CDCE13CECF13CF0470A1
:07018200F030D5DE0201D3CD
:10018900E9D2E7C933E833F892D5EDD2E7CD33ECBC
:0701990033FC5002B2D52235
:1001A000EC30E7100FBF000C0EBE00080DBD0004C0
:1001B0000BEB6014A2D5EB13FCED92E7FD2274FF6C
:1001C000FCFDFEFF22E480F8A2D574FF13FC7D80C5
:0301D000E480EFD9
:1001ED000202C5E493A3F8E493A34003F68001F261
:1001FD0008DFF48029E493A3F85407240CC8C33313
:10020D00C4540F4420C8834004F456800146F6DFE1
:10021D00E4800B0102040810204080900349E47E25
:10022D00019360BCA3FF543F30E509541FFEE493D6
:10023D00A360010ECF54C025E060A840B8E493A39D
:10024D00FAE493A3F8E493A3C8C582C8CAC583CAC8
:10025D00F0A3C8C582C8CAC583CADFE9DEE780BE80
:0103550000A7
:0E01D300C3E49FFFE49EFEE49DFDE49CFC223D
:00000001FF
