:030000000202DB1E
:0C02DB00787FE4F6D8FD75812002032234
:1004C000010E00010D0101120A010F00C180010996
:0704D0000001080001130107
:1004D8005389F0438901758A66758CFCC28DD28C6C
:0104E80022F1
:0B04E900EF1FAC0670011E4C70F622E5
:0804FE007F097EF4DEFEDFFC45
:0105060022D2
:1003670020A0181204FE1204FE20A00F30A0FD05E5
:100377000EE50ED394014003E4F50E20A1171204F5
:10038700FE1204FE20A10E30A1FD050DE50D75F04E
:10039700058485F00DE50E703420A3171204FE20A6
:1003A700A31130A3FDE5122405F512C3940F4003F2
:1003B70075120F20A2171204FE20A21130A2FD749D
:0E03C700FB2512F512D3940050037512052287
:0A04F400EFD3940040031F80F722AD
:040003007F7CDFFE21
:0100070022D6
:1004A600D2947F081204F4C2947F501204F4D294BA
:0A04B6007F051204F47F140204F421
:10046500E4FD7E08D2947F011204F4C294EDC31317
:10047500FDD2943094034305807F041204F4DEE436
:04048500AF057E0041
:010489002250
:02048A00AE07BB
:10048C007D08C294EE1392947F051204F4D294EE7C
:0A049C00C313FEDDED7F040204F43B
:100236001204A67FCC12048A7F4412048A7F7D12A0
:1002460004F41204A67FCC12048A7FBE12048A121A
:1002560004658F091204658F08E508D3947F400E64
:100266006309FFE508F404F5087513018003E4F556
:1002760013E509C4540FFD7C00E50875F010A4AE23
:10028600F02DF50CEC3EF50BE509540FFD75F00A63
:10029600A4FFE5F0C4F854F0C8EFC4540F48F510B5
:1002A600ED75F064A4FFE5F0C4F854F0C8EFC4544B
:1002B6000F4875F00A8485F011AE0BAF0C7D0A125B
:1002C60001D38D16AE0BAF0C7C007D0A1201D38FC5
:0502D600178510152240
:03000B00020435B7
:10043500C0E0C0D0758A66758CFC050F30001CE5E0
:100445000FB51802C2A4E50FB51902C2A5E50FC381
:10045500940F4007D2A4D2A5750F00D0D0D0E032BA
:1003D5001204D8D2AFD2A9D2A8D288C296AC0DE465
:1003E50012011E7BCD7ACC794C783E12000EC004EA
:1003F500C005C006C007AC12E412011ED003D0022E
:10040500D001D00012000E1201528F18C3E51295CB
:1004150018F519120367120236E50E146007047009
:10042500BCD20080B8209604C20080B1D20080AD55
:10000E00EC4D6011E8497017ED33EC3304600DE4EC
:10001E00FCFFFEFD22E933E8330470F80201BE1244
:10002E00018958046009E4CC248150062850090245
:10003E0001C82840030201C5C0E0EB4A7044B980F4
:10004E0006D0E0FB0201B4EF4E701CBD8008EBFF42
:10005E00EAFEE9FD80EBE98DF0A4FEE5F00200F783
:10006E00E9CDF9EAFEEBFFEF89F0A4FCE5F0CE89CD
:10007E00F0A42EFFE435F0CD89F0A42DFEE435F08A
:10008E008067EF4E7005BD80D780C3EF8BF0A4ACB8
:10009E00F0EE8BF0A42CFCE435F0F8EF8AF0A42CF3
:1000AE00E5F038FCE433CB8DF0A42CFCE5F03BF806
:1000BE00EE8AF0A42CFCE5F038F8E433CF89F0A4F6
:1000CE002CFCE5F038CF3400CE89F0A42FFFE5F0FC
:1000DE003EFEE433C98DF0A42EFEE5F039CD8AF054
:1000EE00A42FFFE5F03EFEE43DFD33D0E0FB5007CC
:1000FE000BBB000F0201C8EC2CFCEF33FFEE33FEFE
:06010E00ED33FD0201A02B
:1001140075F020800E75F010800575F0087D007E66
:10012400007F003392D530D503120228EC334010FF
:10013400EF33FFEE33FEED33FDEC33FCD5F0ED226F
:0E014400E5F0247EA2D513CC92E7CDCEFF22AB
:10015200EDD2E7CD33EC3392D524814006E4FFFEA5
:10016200FDFC22FCE4CFCECDCC24E0501174FF8004
:10017200EDC3CC13CCCD13CDCE13CECF13CF0470A1
:07018200F030D5DE02022877
:10018900E9D2E7C933E833F892D5EDD2E7CD33ECBC
:0701990033FC5002B2D52235
:1001A000EC30E7100FBF000C0EBE00080DBD0004C0
:1001B0000BEB6014A2D5EB13FCED92E7FD2274FF6C
:1001C000FCFDFEFF22E480F8A2D574FF13FC7D80C5
:0301D000E480EFD9
:1002E7000203D5E493A3F8E493A34003F68001F255
:1002F70008DFF48029E493A3F85407240CC8C33318
:10030700C4540F4420C8834004F456800146F6DFE6
:10031700E4800B01020408102040809004C0E47EB2
:10032700019360BCA3FF543F30E509541FFEE493DB
:10033700A360010ECF54C025E060A840B8E493A3A2
:10034700FAE493A3F8E493A3C8C582C8CAC583CACD
:10035700F0A3C8C582C8CAC583CADFE9DEE780BE85
:0104D7000024
:1001D300BC000BBE0029EF8DF084FFADF022E4CC10
:1001E300F875F008EF2FFFEE33FEEC33FCEE9DECD9
:1001F300984005FCEE9DFE0FD5F0E9E4CEFD22ED1F
:10020300F8F5F0EE8420D21CFEADF075F008EF2F68
:10021300FFED33FD4007985006D5F0F222C398FD59
:050223000FD5F0EA22F6
:0E022800C3E49FFFE49EFEE49DFDE49CFC22E7
:00000001FF
