:0300000002000EED
:0C000E00787FE4F6D8FD75810C020055E7
:0D01B800010900010805010C0A020A0000FF
:100197005389F0438901758A33758CFEC28DD28CE1
:0101A7002235
:0B01D200EF1FAC0670011E4C70F622FF
:0301C6001201C95A
:0801C9007F097EF4DEFEDFFC7D
:0101D100220B
:1001100020A00B1201C620A005050953090120A14A
:10012000111201C620A10B0508E50875F00A8485A7
:10013000F00820A3261201C91201C920A3047F01DF
:1001400080027F00E50CC3941E50047E0180027E75
:1001500000EE5F6006740A250CF50C20A226120141
:10016000C91201C920A2047F0180027F00E50CD3DF
:10017000940A40047E0180027E00EE5F600674F601
:05018000250CF50C2226
:03000B0002009A56
:10009A00C0E0C0F0C0D075D000C000C004C005C028
:1000AA0006C007758A33758CFEE50C75F01E8485CB
:1000BA00F00C050BE50B7002050AE50875F00A84D9
:1000CA00FFC374019FFFE49400FEAD0C7C00120193
:1000DA0085EFB50B06EEB50A02C292EFB50B06EE36
:1000EA00B50A02C293E50B641E450A7008D292D281
:1000FA0093F50AF50BD007D006D005D004D000D06E
:06010A00D0D0F0D0E0327D
:1001A800120197D2AFD2A9D2A8D28812011080FB2F
:10001A000201A8E493A3F8E493A34003F68001F253
:10002A0008DFF48029E493A3F85407240CC8C333E7
:10003A00C4540F4420C8834004F456800146F6DFB6
:10004A00E4800B01020408102040809001B8E47E8D
:10005A00019360BCA3FF543F30E509541FFEE493AB
:10006A00A360010ECF54C025E060A840B8E493A372
:10007A00FAE493A3F8E493A3C8C582C8CAC583CA9D
:10008A00F0A3C8C582C8CAC583CADFE9DEE780BE55
:0101C5000039
:10018500EF8DF0A4A8F0CF8CF0A428CE8DF0A42E8E
:02019500FE2248
:00000001FF
