:0300000002117278
:0C117200787FE4F6D8FD75814F0211B9BA
:1010E20000000000000000000000000000000000FE
:1010F200000000000000000000000000008080C02E
:10110200C0C0E0E0E0E0C0C0C0800000000000001D
:101112000000F0FCFFFF7F07030101010101030F43
:10112200FFFFFFFCF00000000000FFFFFFFFC00018
:101132000000000000000000FFFFFFFFFF000000B2
:10114200000001071F3F3F7C787070707070787EDE
:101152003F1F0F0700000000000000000000000019
:10116200000000000000000000000000000000007D
:10147D00013101012F0B013C060327020703014037
:10148D0000013D0D012200013300012B00012A0155
:10149D0001300A023A000A012C00C180012300012B
:0514AD002100013201E5
:10169D005389F0438901758A18758CFCC28DD28CE3
:0116AD00221A
:0B16EB00EF1FAC0670011E4C70F622D1
:081700007F097EF4DEFEDFFC30
:0117080022BE
:1012780020A01A12170012170020A01130A0FDB2EA
:1012880097052BE52BD394014003E4F52B20A117F8
:1012980012170012170020A10E30A1FD052AE52A19
:1012A80075F0058485F02AE52B24FF92B3E52B70B1
:1012B8003420A31712170020A31130A3FDE5302412
:1012C80005F530C3940F400375300F20A21712178D
:1012D8000020A21130A2FD74FB2530F530D3940014
:0612E800500375300522E1
:0A16F600EFD3940040031F80F72299
:041712007F7CDFFEFB
:0117160022B0
:10162400D2947F081216F6C2947F501216F6D29402
:0A1634007F051216F67F140216F669
:10156100E4FD7E08D2947F011216F6C294EDC313F6
:10157100FDD2943094034305807F041216F6DEE415
:04158100AF057E0034
:011585002243
:02160800AE072B
:10160A007D08C294EE1392947F051216F6D294EED8
:0A161A00C313FEDDED7F040216F697
:10103D001216247FCC1216087F441216087F7D12DB
:10104D0016F61216247FCC1216087FBE1216081241
:10105D0015618F231215618F21E521D3947F400EE9
:10106D006323FFE521F404F5217532018003E4F5D6
:10107D0032E523C4540FFD7C00E52175F010A4AEBC
:10108D00F02DF526EC3EF525E523540FFD75F00A00
:10109D00A4FFE5F0C4F854F0C8EFC4540F48F52D83
:1010AD00ED75F064A4FFE5F0C4F854F0C8EFC45436
:1010BD000F4875F00A8485F02EAE25AF267D0A12F5
:1010CD000C888D38AE25AF267C007D0A120C888FDA
:0510DD0039852D3722CA
:1012EE00C2B0D2B0C2B030B2FDD2B1AC80E4120BFB
:1012FE00947BD77AFA79FA783F120A84120BC88E49
:10130E00348F35C2B1E53524C2FFE53434FFFE7C9F
:10131E00017DA4120CDD7C007D0F120C768E3A8FAF
:10132E003BC3740F953BF53BE4953AF53AC3E53B69
:10133E009403E53A648094805006753A00753B0339
:10134E00D3E53B940FE53A648094804006753A00ED
:04135E00753B0F22AA
:03000B000214B329
:1014B300C0E0C0D0758A18758CFC052C30001CE583
:1014C3002CB53E02C2A4E52CB53F02C2A5E52CC350
:1014D300940F4007D2A4D2A5752C00D0D0D0E0320F
:100D210012169DD2AFD2A9D2A8D28875C90275CCAC
:100D3100FA75CAFA75CDFF75CBFFD2CA120EA01291
:100D410015CAC296121278AC2AE4120B947BCD7AA2
:100D5100CC794C783E120A84C004C005C006C00795
:100D6100AC30E4120B94D003D002D001D000120AAF
:100D710084120BC88F3EC3E530953EF53F12103DFE
:100D8100E52B14600704704CD2008048209604C201
:100D9100008041D2001212EED3E530953BE53A6472
:100DA10080F87480984011D3E53B940FE53A648054
:100DB1009480500405300530C3E530953BE53A6435
:100DC10080F8748098500DC3E53A648094804004A3
:100DD10015301530E52B2430FB751410E4FD7F042C
:100DE100120F80E52A2430FB751410E4FD7F1412E4
:100DF1000F80E530FB7A00750C02750D10E4FD7F64
:100E0100241211FEE53EFB7A00750C02750D10E40B
:100E1100FD7F3A1211FEE53FFB7A00750C02750D5C
:100E210010E4FD7F5A1211FE750C03750D10AB35E0
:100E3100AA347D02E4FF1211FEE52CFB7A00750C49
:100E410001750D107D027F3A1211FEA296E4FA336C
:100E5100FB750C01750D107D027F5A1211FEA20067
:100E6100E4FA33FB750C02750D107D027F6A1211D5
:100E7100FEE53875F00AA4FDACF0E53975F064A41F
:100E81002DFFE5F03CFE7C00EF2537FBEC3EFA75CB
:0F0E91000C03750D107D04E4FF1211FE020D45D8
:10000E0000000000000000000000000000000000E2
:10001E00000000000000000000F8000000000000DA
:10002E0000333000000000100C06100C060000001B
:10003E0000000000000040C07840C0784000043F3F
:10004E0004043F040400007088FC0830000000180F
:10005E0020FF211E0000F008F000E0180000002133
:10006E001C031E211E0000F00888700000001E21D7
:10007E0023241927211010160E0000000000000086
:10008E00000000000000000000E018040200000064
:10009E0000071820400000020418E0000000004095
:1000AE00201807000000404080F08040400002020F
:1000BE00010F01020200000000F00000000001012B
:1000CE00011F01010100000000000000000080B0CF
:1000DE0070000000000000000000000000000001A1
:1000EE0001010101010100000000000000000030CC
:1000FE003000000000000000000080601804006066
:10010E0018060100000000E010080810E000000FC3
:10011E00102020100F00001010F80000000000202A
:10012E00203F202000000070080808887000003072
:10013E00282422213000003008888848300000181A
:10014E00202020110E000000C02010F80000000733
:10015E000424243F240000F80888880808000019A9
:10016E00212020110E0000E0108888180000000FDA
:10017E00112020110E0000380808C83808000000B1
:10018E00003F000000000070880808887000001C06
:10019E00222121221C0000E010080810E0000000BF
:1001AE00312222110F00000000C0C000000000002C
:1001BE000030300000000000008000000000000051
:1001CE008060000000000000804020100800000148
:1001DE00020408102000404040404040400004040B
:1001EE0004040404040000081020408000000020D5
:1001FE00100804020100007048080808F000000012
:10020E00003036010000C030C828E810E0000718A2
:10021E00272423140B000000C038E0000000203C0F
:10022E0023020227382008F8888888700000203FB3
:10023E00202020110E00C0300808080838000718CA
:10024E0020202010080008F808080810E000203FC1
:10025E00202020100F0008F88888E8081000203FA2
:10026E0020202320180008F88888E8081000203F76
:10027E00200003000000C0300808083800000718EE
:10028E002020221E020008F808000008F808203F6F
:10029E00210101213F20000808F808080000002075
:1002AE00203F2020000000000808F8080800C08049
:1002BE0080807F00000008F888C028180800203FC2
:1002CE0020012638200008F8080000000000203F1A
:1002DE0020202020300008F8F800F8F80800203F11
:1002EE00003F003F200008F830C00008F808203F0B
:1002FE00200007183F00E01008080810E0000F105B
:10030E00202020100F0008F808080808F000203FF1
:10031E00210101010000E01008080810E0000F188C
:10032E00242438504F0008F8888888887000203FB1
:10033E002000030C302000708808080838000038B0
:10034E00202121221C00180808F8080818000000B7
:10035E00203F2000000008F808000008F808001FE1
:10036E00202020201F000878880000C838080000D0
:10037E0007380E010000F80800F80008F800033CEA
:10038E000700073C030008186880806818082030B2
:10039E002C03032C30200838C800C8380800000091
:1003AE00203F2000000010080808C8380800203838
:1003BE00262120201800000000FE0202020000008C
:1003CE00007F40404000000C30C0000000000000E4
:1003DE0000010638C00000020202FE0000000040CC
:1003EE0040407F00000000000402020204000000F2
:1003FE0000000000000000000000000000008080EF
:10040E0080808080808000020204000000000000D6
:10041E0000000000000000008080808000000019B5
:10042E00242222223F2008F8008080000000003F96
:10043E00112020110E000000008080800000000EB0
:10044E00112020201100000000808088F800000E8E
:10045E00112020103F200000808080800000001FAF
:10046E00222222221300008080F088888818002023
:10047E00203F202000000000808080808000006BE4
:10048E0094949493600008F8008080800000203FD0
:10049E00210000203F2000809898000000000020DE
:1004AE00203F20200000000000809898000000C02F
:1004BE008080807F000008F8000080808000203F50
:1004CE0024022D302000000808F800000000002053
:1004DE00203F202000008080808080808000203F90
:1004EE0020003F20003F8080008080800000203F61
:1004FE00210000203F200000808080800000001F2F
:10050E00202020201F00808000808000000080FFBF
:10051E00A12020110E000000008080808000000EBF
:10052E00112020A0FF80808080008080800020200D
:10053E003F21200001000000808080808000003379
:10054E00242424241900008080E080800000000014
:10055E00001F202000008080000000808000001F0F
:10056E00202020103F2080808000008080800001AD
:10057E000E300806010080800080008080800F30E1
:10058E000C030C300F000080800080808000002063
:10059E00312E0E312000808080000080808080818E
:1005AE008E701806010000808080808080000021FF
:1005BE00302C2221300000000000807C020200005E
:1005CE000000003F404000000000FF00000000005F
:1005DE000000FF0000000002027C800000000040CE
:1005EE00403F00000000000601010202040400006A
:1005FE000000000000000000FCFC4444444444445D
:10060E004444FCFC0000000000000000000000005C
:10061E0000000000000080C0FF3F04040404848436
:10062E008484FFFF000000000000000000000000B6
:10063E00000000000000000000FC04040404040498
:10064E00040404FC00000000000000000000000094
:10065E000000000000000000007F41414141414187
:10066E004141817F000000000000000000000000FA
:10067E0000000000000000006894949494949494F8
:10068E009494947800000000000000000000000028
:10069E000000000000000088849293929292FF92D4
:1006AE009292929280000000000000000000000074
:1006BE000000000000000008FC484848FC0800F854
:1006CE0044444444F8000000000000000000000014
:1006DE0000000000000000886F0909096F88D03FF4
:1006EE0004048404FF00000000000000000000006D
:1006FE0000000000000000000000000000000000EC
:10070E0000000000000000000000000000000000DB
:10071E0000000000000000010101010101010101C2
:10072E0001010101010000000000000000000000B6
:10073E00000000000000000008080808080808086B
:10074E00080808080000000000000000000000007B
:10075E00000000000000002020202020202020206B
:10076E0020202020200000000000000000000000DB
:10077E00000000000000000008080808080808082B
:10078E00080808080000000000000000000000003B
:10079E000000000000000040414141414141414103
:1007AE0041414140400000000000000000000000F8
:1007BE000000000000000000FC040404FC0404FC23
:1007CE00040404FC00000000000000000000000013
:1007DE000000000000000000FF888886818080876E
:1007EE00888888FF00000000000000000000000064
:1007FE00000000000000000484848484FC8484844F
:10080E00848484040000000000000000000000004A
:10081E000000000000000080808080FE81808080CB
:10082E008080FF808080000000000000000000003B
:10083E00000000000000004040404040404C70402E
:10084E00C0404040400000000000000000000000DA
:10085E00000000000000008040300C03000000008B
:10086E0001060830C000000000000000000000007B
:10087E00000000000000000000FC04040404040456
:10088E00040404FC00000000000000000000000052
:10089E000000000000000000007F41414141414145
:1008AE004141817F000000000000000000000000B8
:1008BE000000000000001060028C0000FE92929278
:1008CE009292FE00000000000000000000000000F8
:1008DE0000000000000004047E01407E42427E4281
:1008EE007E42427E4000000000000000000000003A
:1008FE000000000000000000FC242424FC25262417
:10090E00FC2424240400000000000000000000006D
:10091E0000000000000040308F80844C55252525B6
:10092E00554C808080000000000000000000000098
:10093E00000000000000060909E6F80C040202029D
:10094E000202041E00000000000000000000000073
:10095E00000000000000000000071F302040404053
:10096E0040402010000000000000000000000000C9
:10097E0000000000000000808080808080808080E9
:10098E008080808000000000000000000000000059
:10099E000000000000000000000000000000000049
:1009AE000000000000000000000000000000000039
:1009BE00000000000000004020108C888888F88815
:1009CE008888888888000000000000000000000071
:1009DE000000000000000008080F08080808FF08C3
:1009EE0008080808080000000000000000000000D1
:1009FE00000000000000000000001020408000C039
:100A0E00300E00000000000000000000000000009A
:100A1E0000000000000000404020201008040304E5
:100A2E0008100000000000000000000000000000A0
:100A3E0000000000000000000000000000000000A8
:100A4E0000C0300C03000000000000000000000099
:100A5E000000000000000000001008041820100C18
:100A6E000300000000000000000000000000000075
:060A7E0000000000000072
:10163E00EF4E60157D087C07ED1DAA0470011C4A53
:09164E0070F6EF1F70EA1E80E740
:011657002270
:09170900D2A7D2A6C2A6C2A722F3
:07000300D2A7C2A6D2A6227B
:0B16BF001215421216CAAF04121542A9
:0516CA00D2A7C2A72217
:07153B00AC071217097F78CD
:10154200C2A7E4FEAD07530580BD8004D2A6800287
:0E155200C2A6EF25E0FFD2A7C2A70EBE08E694
:011560002268
:0E16CF0012153B1216CAE4FF1216BF020003EA
:0E16DD0012153B1216CA7F401216BF02000300
:1014E300E924B0FFE433FEE4FDFC1214FEE4FDFC4A
:0B14F300FFFE1214FE7F10E4FDFCFE63
:1014FE00AB07AA06ED4C60030216DDAF031216CF42
:01150E0022BA
:021586008F1DB7
:10158800E4F91214E3E4F51EAF1D7E007D017C0032
:101598001214FE051EE51EC3948040EC09B908E24A
:0115A8002220
:1015EA00D3EF9400EE940040147D657C18ED1D70D5
:0D15FA00011CED4C70F7EF1F70E61E80E342
:0116070022C0
:10168700EF1FAA0670011E4A600BE4FDEDC3947BB1
:0516970050EE0D80F78C
:01169C00222B
:10150F00A907ED24B0FFE433FEE4FDFC1214FEE95D
:10151F0054F0C4540F7E004410FFE4FDFC1214FE7F
:0C152F00E9540FFF7E00E4FDFC0214FEF6
:101670007F8D1214FAE4FDFC7F14FE1214FEE4FDCB
:07168000FC7FAFFE0214FE27
:1016AE00E4FDFC7F8D1214F4E4FDFC7FAEFE02140B
:0116BE00FE2D
:1015CA00E4F91214E3E4F5087D017C00E4FFFE125D
:0F15DA0014FE0508E508C3948040ED09B908E345
:0115E90022DF
:1015A900E4F91214E3E4F51F7D017C007F017E005C
:1015B9001214FE051FE51FC3948040EC09B908E227
:0115C90022FF
:040F80008F118D122E
:100F8400E4F515F9EB24E0F515E511D3947F40075A
:100F9400E4F51105120512E51464107069AD12AF81
:100FA4001112150FE4F975F010E515A429F582E482
:100FB40035F0F583E5822414F582E5833400F58366
:100FC400E493FF7E007D017C001214FE09B908D66B
:100FD400E51204FDAF1112150FE4F975F010E515D3
:100FE400A429F582E435F0F583E582241CF582E535
:100FF400833400F583E493FF7E007D017C001214AA
:10100400FE09B908D622AD12AF1112150FE4F9E5A5
:101014001575F006A4240EF582E43400F583E58208
:1010240029F582E43583F583E493FF7E007D017C1A
:08103400001214FE09B906D7F1
:01103C002291
:041658008F11A90540
:10165C007F017E00AD0119ED6009AD117C00120C0B
:03166C007680F194
:01166F002258
:0811FE008F088D098A0A8B0B92
:10120600E4F510F50EE50EC3950C5065C3E50C9597
:101216000E14FD7F0A121658AC0AAD0BCFCDCFCEF9
:10122600CCCE120C887C007D0A120C888D0FE5103E
:101236007023E50C14FFE50EC39F5019E50F7012DD
:10124600E50DC313850EF0A42508FF850D147B203C
:101256008016751001E50DC313850EF0A42508FF51
:10126600E50F2430FB850D14AD09120F80050E80A5
:0112760094E3
:011277002254
:0A143D008F168D178B188A19891A73
:10144700E4F51CAB18AA19A91A851C82758300122A
:101457000C49FB6020851B14AD17AF16120F807463
:10146700082516F516D394784007E4F516051705F1
:0514770017051C80CEEA
:01147C00224D
:061362008F4C8D4D8B4EF7
:10136800E4F54F12150FE4F975F040E54EA4240496
:10137800F582E5F03406F583E58229F582E43583C4
:10138800F583E493FF7E007D017C001214FE054F77
:1013980009B910D4E54D04FDAF4C12150FE4F975E9
:1013A800F040E54EA42424F582E5F03406F583E503
:1013B8008229F582E43583F583E493FF7E007D017D
:0B13C8007C001214FE054F09B910D480
:0113D30022F7
:0413D4008F418B4377
:1013D800E4F548F549E5445407700BE54413131345
:1013E800541FF54B800AE544131313541F04F54B9F
:1013F8008D4BE54BC39544503BAD4BAF4112150F98
:1014080085414AE54AC395435026AB45AA46A947B4
:101418000549E549AE487002054814F5828E8312E5
:101428000C49FF7E007D017C001214FE054A80D322
:04143800054B80BE22
:01143C00228D
:100EA000E4FDFC7FAEFE1214EDE4FDFC7F40FE127B
:100EB00014FEE4FDFC7FB0FE1214FEE4FDFC7F8115
:100EC000FE1214FEE4FDFC7FFFFE1214FEE4FDFCA6
:100ED0007FA1FE1214FEE4FDFC7FA6FE1214FEE4C8
:100EE000FDFC7FA8FE1214FEE4FDFC7F3FFE121401
:100EF000FEE4FDFC7FC8FE1214FEE4FDFC7FD3FE81
:100F00001214FEE4FDFCFFFE1214FEE4FDFC7FD58E
:100F1000FE1214FEE4FDFC7F80FE1214FEE4FDFCD4
:100F20007FD8FE1214FEE4FDFC7F05FE1214FEE4E1
:100F3000FDFC7FD9FE1214FEE4FDFC7FF1FE1214CD
:100F4000FEE4FDFC7FDAFE1214FEE4FDFC7F12FEDF
:100F50001214FEE4FDFC7FDBFE1214FEE4FDFC7FB8
:100F600030FE1214FEE4FDFC7F8DFE1214FEE4FD43
:100F7000FC7F14FE1214FEE4FDFC7FAFFE0214FEA3
:100A8400EC4D6011E8497017ED33EC3304600DE46C
:100A9400FCFFFEFD22E933E8330470F8020C341243
:100AA4000BFF58046009E4CC248150062850090245
:100AB4000C3E284003020C3BC0E0EB4A7044B98072
:100AC40006D0E0FB020C2AEF4E701CBD8008EBFF41
:100AD400EAFEE9FD80EBE98DF0A4FEE5F0020B6D82
:100AE400E9CDF9EAFEEBFFEF89F0A4FCE5F0CE894D
:100AF400F0A42EFFE435F0CD89F0A42DFEE435F00A
:100B04008067EF4E7005BD80D780C3EF8BF0A4AC37
:100B1400F0EE8BF0A42CFCE435F0F8EF8AF0A42C72
:100B2400E5F038FCE433CB8DF0A42CFCE5F03BF885
:100B3400EE8AF0A42CFCE5F038F8E433CF89F0A475
:100B44002CFCE5F038CF3400CE89F0A42FFFE5F07B
:100B54003EFEE433C98DF0A42EFEE5F039CD8AF0D3
:100B6400A42FFFE5F03EFEE43DFD33D0E0FB50074B
:100B74000BBB000F020C3EEC2CFCEF33FFEE33FEFC
:060B8400ED33FD020C162A
:100B8A0075F020800E75F010800575F0087D007EE6
:100B9A00007F003392D530D503120D13EC33401089
:100BAA00EF33FFEE33FEED33FDEC33FCD5F0ED22EF
:0E0BBA00E5F0247EA2D513CC92E7CDCEFF222B
:100BC800EDD2E7CD33EC3392D524814006E4FFFE25
:100BD800FDFC22FCE4CFCECDCC24E0501174FF8084
:100BE800EDC3CC13CCCD13CDCE13CECF13CF047021
:070BF800F030D5DE020D1301
:100BFF00E9D2E7C933E833F892D5EDD2E7CD33EC3C
:070C0F0033FC5002B2D522B4
:100C1600EC30E7100FBF000C0EBE00080DBD00043F
:100C26000BEB6014A2D5EB13FCED92E7FD2274FFEB
:100C3600FCFDFEFF22E480F8A2D574FF13FC7D8044
:030C4600E480EF58
:10117E00020D21E493A3F8E493A34003F68001F259
:10118E0008DFF48029E493A3F85407240CC8C33372
:10119E00C4540F4420C8834004F456800146F6DF41
:1011AE00E4800B010204081020408090147DE47E40
:1011BE00019360BCA3FF543F30E509541FFEE49336
:1011CE00A360010ECF54C025E060A840B8E493A3FD
:1011DE00FAE493A3F8E493A3C8C582C8CAC583CA28
:1011EE00F0A3C8C582C8CAC583CADFE9DEE780BEE0
:0114B2000039
:100C4900BB010CE58229F582E5833AF583E0225060
:100C590006E92582F8E622BBFE06E92582F8E222AA
:0D0C6900E58229F582E5833AF583E49322C4
:100C7600EF8DF0A4A8F0CF8CF0A428CE8DF0A42E92
:020C8600FE224C
:100C8800BC000BBE0029EF8DF084FFADF022E4CC50
:100C9800F875F008EF2FFFEE33FEEC33FCEE9DEC19
:100CA800984005FCEE9DFE0FD5F0E9E4CEFD22ED5F
:100CB800F8F5F0EE8420D21CFEADF075F008EF2FA9
:100CC800FFED33FD4007985006D5F0F222C398FD9A
:050CD8000FD5F0EA2237
:100CDD00C2D5EC30E709B2D5E4C39DFDE49CFCEE32
:100CED0030E715B2D5E4C39FFFE49EFE120C88C316
:100CFD00E49DFDE49CFC8003120C8830D507C3E411
:060D0D009FFFE49EFE22A0
:0E0D1300C3E49FFFE49EFEE49DFDE49CFC22F1
:00000001FF
