:0300000002000EED
:0C000E00787FE4F6D8FD75810D020055E6
:0C012000020C0000020A000002080000AF
:1000F4005389F0438901758AFF758CFFC28DD28CB8
:0101040022D8
:0B012D00EF1FAC0670011E4C70F622A4
:0D010500007F027E677D93DDFEDEFCDFFAE9
:0101120022CA
:03000B0002009A56
:10009A00C0E0C0D0758AFF758CFF050DE50D7002B2
:1000AA00050C050BE50B7002050AE50DB50907E518
:1000BA000CB50802B290E50D6414450C7006B290B6
:1000CA00F50CF50DE50B6464450A700CF50AF50BA1
:1000DA000509E50970020508E50964134508700574
:0A00EA00F508750901D0D0D0E0320E
:0D0113001200F4D2AFD2A9C290C29180FEBA
:10001A00020113E493A3F8E493A34003F68001F2E8
:10002A0008DFF48029E493A3F85407240CC8C333E7
:10003A00C4540F4420C8834004F456800146F6DFB6
:10004A00E4800B0102040810204080900120E47E25
:10005A00019360BCA3FF543F30E509541FFEE493AB
:10006A00A360010ECF54C025E060A840B8E493A372
:10007A00FAE493A3F8E493A3C8C582C8CAC583CA9D
:10008A00F0A3C8C582C8CAC583CADFE9DEE780BE55
:01012C0000D2
:00000001FF
