:0300000002000EED
:0C000E00787FE4F6D8FD758109020055EA
:0400030002080000EF
:1000C3005389F0438901758AFF758CFFC28DD28CE9
:0100D300220A
:0B00EF00EF1FAC0670011E4C70F622E3
:0D00D400007F027E677D93DDFEDEFCDFFA1B
:0100E10022FC
:03000B0002009A56
:10009A00C0E0758AFF758CFF0509E509700205083D
:1000AA00640145087002B290E509640A45087006C1
:0900BA00B290F508F509D0E0321E
:0D00E2001200C3D2AFD2A9C290C29180FE1D
:10001A000200E2E493A3F8E493A34003F68001F21A
:10002A0008DFF48029E493A3F85407240CC8C333E7
:10003A00C4540F4420C8834004F456800146F6DFB6
:10004A00E4800B0102040810204080900003E47E43
:10005A00019360BCA3FF543F30E509541FFEE493AB
:10006A00A360010ECF54C025E060A840B8E493A372
:10007A00FAE493A3F8E493A3C8C582C8CAC583CA9D
:10008A00F0A3C8C582C8CAC583CADFE9DEE780BE55
:0100070000F8
:00000001FF
