:030000000201E119
:0C01E100787FE4F6D8FD7581200202282A
:0E037200010900010801010B0A010A00C18007
:100361005389F0438901758A66758CFCC28DD28CE4
:010371002269
:0B038100EF1FAC0670011E4C70F6224E
:08038C007F097EF4DEFEDFFCB8
:010394002246
:10026D0020A01112038C12038C20A00830A0FD05D4
:10027D000953090120A11712038C12038C20A10E22
:10028D0030A1FD0508E50875F00A8485F008E5093B
:10029D00703420A31712038C20A31130A3FDE50B9E
:1002AD002405F50BC3940F4003750B0F20A21712F5
:1002BD00038C20A21130A2FD74FB250BF50BD394FA
:0702CD00005003750B052230
:03000B00020331BC
:10033100C0E0C0D0758A66758CFC050A30001CE5EA
:100341000AB50C02D290E50AB50D02D291E50AC3B5
:10035100940F4007C290C291750A00D0D0D0E0320C
:1002D400120361D2AFD2A9D2A8D288C2A4AC08E4D6
:1002E40012011E7BCD7ACC79CC783D12000EC0046D
:1002F400C005C006C007AC0BE412011ED003D00237
:10030400D001D00012000E1201528F0CC3E50B95E0
:100314000CF50D12026DE5091460070470BFD200DC
:0D03240080BB20A404C20080B4D20080B0D1
:10000E00EC4D6011E8497017ED33EC3304600DE4EC
:10001E00FCFFFEFD22E933E8330470F80201BE1244
:10002E00018958046009E4CC248150062850090245
:10003E0001C82840030201C5C0E0EB4A7044B980F4
:10004E0006D0E0FB0201B4EF4E701CBD8008EBFF42
:10005E00EAFEE9FD80EBE98DF0A4FEE5F00200F783
:10006E00E9CDF9EAFEEBFFEF89F0A4FCE5F0CE89CD
:10007E00F0A42EFFE435F0CD89F0A42DFEE435F08A
:10008E008067EF4E7005BD80D780C3EF8BF0A4ACB8
:10009E00F0EE8BF0A42CFCE435F0F8EF8AF0A42CF3
:1000AE00E5F038FCE433CB8DF0A42CFCE5F03BF806
:1000BE00EE8AF0A42CFCE5F038F8E433CF89F0A4F6
:1000CE002CFCE5F038CF3400CE89F0A42FFFE5F0FC
:1000DE003EFEE433C98DF0A42EFEE5F039CD8AF054
:1000EE00A42FFFE5F03EFEE43DFD33D0E0FB5007CC
:1000FE000BBB000F0201C8EC2CFCEF33FFEE33FEFE
:06010E00ED33FD0201A02B
:1001140075F020800E75F010800575F0087D007E66
:10012400007F003392D530D5031201D3EC33401055
:10013400EF33FFEE33FEED33FDEC33FCD5F0ED226F
:0E014400E5F0247EA2D513CC92E7CDCEFF22AB
:10015200EDD2E7CD33EC3392D524814006E4FFFEA5
:10016200FDFC22FCE4CFCECDCC24E0501174FF8004
:10017200EDC3CC13CCCD13CDCE13CECF13CF0470A1
:07018200F030D5DE0201D3CD
:10018900E9D2E7C933E833F892D5EDD2E7CD33ECBC
:0701990033FC5002B2D52235
:1001A000EC30E7100FBF000C0EBE00080DBD0004C0
:1001B0000BEB6014A2D5EB13FCED92E7FD2274FF6C
:1001C000FCFDFEFF22E480F8A2D574FF13FC7D80C5
:0301D000E480EFD9
:1001ED000202D4E493A3F8E493A34003F68001F252
:1001FD0008DFF48029E493A3F85407240CC8C33313
:10020D00C4540F4420C8834004F456800146F6DFE1
:10021D00E4800B0102040810204080900372E47EFC
:10022D00019360BCA3FF543F30E509541FFEE493D6
:10023D00A360010ECF54C025E060A840B8E493A39D
:10024D00FAE493A3F8E493A3C8C582C8CAC583CAC8
:10025D00F0A3C8C582C8CAC583CADFE9DEE780BE80
:01038000007C
:0E01D300C3E49FFFE49EFEE49DFDE49CFC223D
:00000001FF
