:0300000002000EED
:0C000E00787FE4F6D8FD75810D020055E6
:0C012800020C0000020A000002080000A7
:1000FA005389F0438901758AFB758CFFC28DD28CB6
:01010A0022D2
:0B013500EF1FAC0670011E4C70F6229C
:0D011A00007F027E677D93DDFEDEFCDFFAD4
:0101270022B5
:03000B0002009A56
:10009A00C0E0C0D0758AFB758CFF050DE50D7002B6
:1000AA00050C050BE50B7002050AE50DB50907E518
:1000BA000CB50802B290E50D6432450C7006B29098
:1000CA00F50CF50DC3E5099431E508648094804088
:0C00DA0006750800750901D0D0D0E03296
:030003000200E612
:1000E600C0E0C0D074142509F509E43508F508D038
:0400F600D0D0E03254
:0F010B001200FAD2AFD2A9D2A8D288C29080FE39
:10001A0002010BE493A3F8E493A34003F68001F2F0
:10002A0008DFF48029E493A3F85407240CC8C333E7
:10003A00C4540F4420C8834004F456800146F6DFB6
:10004A00E4800B0102040810204080900128E47E1D
:10005A00019360BCA3FF543F30E509541FFEE493AB
:10006A00A360010ECF54C025E060A840B8E493A372
:10007A00FAE493A3F8E493A3C8C582C8CAC583CA9D
:10008A00F0A3C8C582C8CAC583CADFE9DEE780BE55
:0101340000CA
:00000001FF
