:03000000021528BE
:0C152800787FE4F6D8FD75817102156F24
:1017FB0001440101420B015706032B020703015B56
:10180B000001580D012200014600012F00012E019D
:10181B0001430A0255000A013000C1800123000177
:10182B0021000145010425000000000F31000000DC
:10183B00000000000000000000000000084720101E
:06184B00060123595502BD
:081C97007F0B7EBEDEFEDFFCC8
:011C9F002222
:051CB200C293C2912263
:1018CD00D2935307FEE4FEEF30E004D2928002C2C1
:1018DD0092D291C291EFC313FF0EBE08EAE4FEED62
:1018ED0030E004D2928002C292D291C291EDC31324
:0718FD00FD0EBE08EAC293D4
:0119040022C0
:10189200D293430701E4FDEF30E004D2928002C20A
:1018A20092D291C291EFC313FF0DBD08EAE4FDEE9F
:1018B200C313FE309205430680800353067FD29104
:0A18C200C2910DBD08E9C293AF0604
:0118CC0022F9
:1019A000AD487F8C1218CDAD497F881218CDAD4A55
:1019B0007F861218CDAD4B7F841218CDAD4C7F823F
:1019C0001218CDAD4D7F801218CDAD4E7F8A021812
:0119D000CD49
:101905007F8C1218928F487F881218928F497F8694
:101915001218928F4A7F841218928F4B7F82121869
:10192500928F4C7F80121892EF547FF54D7F8A126B
:0519350018928F4E2204
:101B3B008F0EE558B40C0FE522600BE55BD39402D6
:101B4B0040047B0E8002AB0E7D067F6C12172022A9
:10196E00EF146014146015146016146017146018C8
:10197E00240570187F0A80167F0480127F05800E62
:10198E007F06800A7F0780067F0880027F09121B70
:02199E003B22EA
:101A8600E558B40D0FE522600BE55BD394024004E4
:101A96007B0E800AE54660047B1180027B107D0484
:061AA6007F381217202218
:101A01008F0E8D0F8B10E511B55812E522600EE592
:101A11005BD3940240077515107B2D800CE51024D3
:0D1A210030FB751510AD0FAF0E12126D22C7
:100D6C008B088A09890A900008120C94FF12196EDC
:100D7C00AB08AA09A90A900009120C94FBE4F5111E
:100D8C007D027F1C121A01AB08AA09A90A90000A5D
:100D9C00120C94FB7511017D027F24121A01AB0811
:100DAC00AA09A90A90000B120C94FB7511027D0282
:100DBC007F36121A01AB08AA09A90A90000C120C72
:100DCC0094FB7511037D027F3E121A01AB08AA0930
:100DDC00A90A90000D120C94FB7511047D027F5032
:100DEC00121A01AB08AA09A90A90000E120C94FB66
:100DFC007511057D027F58121A017515107B3A7D0D
:100E0C00027F2D12126D7515107B3A7D027F4712F1
:100E1C00126DAB08AA09A90A120C7BFB7511147D83
:100E2C0004E4FF121A01AB08AA09A90A90000112E6
:100E3C000C94FB7511147D047F08121A01AB08AADF
:100E4C0009A90A900002120C94FB7511067D047F0F
:100E5C0010121A01AB08AA09A90A900003120C94EB
:100E6C00FB7511077D047F18121A01AB08AA09A99A
:100E7C000A900006120C94FB75110A7D067F221253
:100E8C001A01AB08AA09A90A900007120C94FB7569
:100E9C00110B7D067F2A121A01AB0BAA0CA90D129D
:100EAC000C7B2430FB751510E4FD7F3A12126DABF0
:100EBC000BAA0CA90D900001120C942430FB751593
:100ECC0010E4FD7F4212126DAB0BAA0CA90D900021
:100EDC0002120C942430FB751510E4FD7F52121293
:100EEC006DAB08AA09A90A900004120C94FB7511A9
:100EFC00087D06E4FF121A01AB08AA09A90A9000A2
:100F0C0005120C94FB7511097D067F08121A0175E8
:100F1C00110EAB257D047F4A121A0175110FAB26F9
:100F2C007D047F52121A01751110AB277D047F626C
:100F3C00121A01751111AB287D047F6A121A010275
:020F4C001A8603
:101C2E0053890F438910758BB0758D3CC28FD28E40
:011C3E002283
:10132A00E558B4120040030213D790133BF828285B
:10133A007302137102137702137D02138302138956
:10134A0002138F02139502139B0213A10213A70221
:10135A0013AD0213B30213B90213D70213BF021358
:10136A00C50213CB0213D1EFC454F08001EF254B11
:10137A00F54B22EFC454F08001EF254CF54C22EFD7
:10138A00C454F08001EF254DF54D22EFC454F0808E
:10139A0001EF2548F54822EFC454F08001EF2549B2
:1013AA00F54922EFC454F08001EF254AF54A22EFAD
:1013BA00254EF54E22EF2525F52522EF2526F52681
:1013CA0022EF2527F52722EF2528F528220546AF03
:0C13DA0046EF75F002120C5985F0462217
:1015B400121C2E12118D121B5B7B0BE4FD7F10128B
:1015C40017207B0CE4FD7F201217207515107B3A41
:1015D400E4FD7F3012126D7515107B2EE4FD7F4CF7
:1015E40012126D7B0DE4FD7F601217207B0F7D04CA
:1015F4007F22121720E4FB7D067F101217207B0147
:101604007D067F351217207B027D067F4C12172042
:101614007B037D067F5C1217207B107D047F3812CC
:0E16240017207515107B3A7D047F5A02126D57
:10193A00E546601EE522701AE525B53A13E526B597
:10194A003B0EE527B53C09E528B53D04C295800262
:10195A00D295750B00750C00750D2B7B007A0079FA
:04196A0031020D6CCD
:101C3F005389F0438901758A18758CFCC28DD28C3B
:011C4F002272
:0B000E00EF1FAC0670011E4C70F622C4
:081CA0007F097EF4DEFEDFFC8B
:011CA8002219
:10108F0020B72D121CA020B7270522E5225401F509
:10109F00226010E4FD7F8E1218CD7D807F801218A4
:1010AF00CD800D1219A07D807F8E1218CD121905DB
:1010BF0020A02D121CA0121CA020A013E522700F3F
:1010CF0030A0FD052FE52FD394014003E4F52F2029
:1010DF00A00EE522600A0558E558B41203E4F5584E
:1010EF0020A136121CA0121CA020A112E522700E06
:1010FF0030A1FD052EE52E75F0058485F02E20A17B
:10110F0018E5226014121CA020A10E1558C3E55833
:10111F0064809480500375580A20A331121CA0E5F7
:10112F002F701820A315E522701130A3FDE543247D
:10113F0005F543C3940F400375430F20A20FE5221B
:10114F00600B121CA020A2057F0112132A20A22DD2
:10115F00121CA0E52F701820A215E522701130A2E5
:10116F00FD74FB2543F543D39400500375430520CD
:0E117F00A30B121CA020A3057FFF12132A222F
:0A1C8D00EFD3940040031F80F722FC
:041CB7007F7CDFFE51
:011CBB002206
:101BB500D2947F08121C8DC2947F50121C8DD29432
:0A1BC5007F05121C8D7F14021C8D99
:101AD200E4FD7E08D2947F01121C8DC294EDC313E3
:101AE200FDD2943094034305807F04121C8DDEE402
:041AF200AF057E00BE
:011AF60022CD
:021B9900AE0795
:101B9B007D08C294EE1392947F05121C8DD294EEA5
:0A1BAB00C313FEDDED7F04021C8D64
:1013E600121BB57FCC121B997F44121B997F7D126D
:1013F6001C8D121BB57FCC121B997FBE121B991236
:101406001AD28F23121AD28F21E521D3947F400E50
:101416006323FFE521F404F5217545018003E4F516
:1014260045E523C4540FFD7C00E52175F010A4AEFC
:10143600F02DF52AEC3EF529E523540FFD75F00A4B
:10144600A4FFE5F0C4F854F0C8EFC4540F48F540C3
:10145600ED75F064A4FFE5F0C4F854F0C8EFC45489
:101466000F4875F00A8485F041AE29AF2A7D0A122D
:101476000CD38D53AE29AF2A7C007D0A120CD38F74
:051486005485405222D4
:1016AC00C2B0D2B0C2B030B2FDD2B1AC80E4120B39
:1016BC00A47BD77AFA79FA783F120A94120BD88E57
:1016CC004F8F50C2B1E55024C2FFE54F34FFFE7C72
:1016DC00017DA4120D287C007D0F120CC18E558F3C
:1016EC0056C3740F9556F556E49555F555C3E55606
:1016FC009403E55564809480500675550075560327
:10170C00D3E556940FE555648094804006755500DA
:04171C0075560F22CD
:03000B000219D106
:1019D100C0E0C0D0758A18758CFC053030001CE55C
:1019E10030B55902C2A4E530B55A02C2A5E530C3EB
:1019F100940F4007D2A4D2A5753000D0D0D0E032E8
:03001B0002148B41
:10148B00C0E0C0D075D000C005C006C007758BB0DA
:10149B00758D3CC28FB297055BE55B64047073F589
:1014AB005BE5227003121905E547C4540FF531E5CE
:1014BB0047540FF532E548C4540FF533E548540F44
:1014CB00F534E549C4540FF535E549540FF536E5C8
:1014DB004AC4540FF537E54A540FF538E54E540717
:1014EB00F539E54BC4540FF53AE54B540FF53BE595
:1014FB004CC4540FF53CE54C540FF53DE54DC4542D
:10150B000FF53EE54D540FF53F85542B85532C8538
:0D151B00522DD007D006D005D0D0D0E03240
:100F4E00121C3FD2AFD2A9D2A8D28875C90275CCD5
:100F5E00FA75CAFA75CDFF75CBFFD2CA12118D1272
:100F6E001B5B1215B4C296D20012108FAC2EE41277
:100F7E000BA47BCD7ACC794C783E120A94C004C077
:100F8E0005C006C007AC43E4120BA4D003D002D0B8
:100F9E0001D000120A94120BD88F59C3E54395590C
:100FAE00F55A1213E612193AE52F14600704704C25
:100FBE00D2008048209604C2008041D2001216ACA6
:100FCE00D3E5439556E5556480F87480984011D367
:100FDE00E556940FE555648094805004054305430F
:100FEE00C3E5439556E5556480F8748098500DC35B
:100FFE00E55564809480400415431543E52F243055
:10100E00FB7515107D02E4FF12126DB2B3E522706E
:10101E0003121905E547C4540FF531E547540FF592
:10102E0032E548C4540FF533E548540FF534E5491D
:10103E00C4540FF535E549540FF536E54AC4540F3F
:10104E00F537E54A540FF538E54E5407F539E54BBB
:10105E00C4540FF53AE54B540FF53BE54CC4540F11
:10106E00F53CE54C540FF53DE54DC4540FF53EE50A
:10107E004D540FF53F85542B85532C85522D020F61
:01108E0077EA
:10001E0000000000000000000000000000000000D2
:10002E00000000000000000000F8000000000000CA
:10003E0000333000000000100C06100C060000000B
:10004E0000000000000040C07840C0784000043F2F
:10005E0004043F040400007088FC083000000018FF
:10006E0020FF211E0000F008F000E0180000002123
:10007E001C031E211E0000F00888700000001E21C7
:10008E0023241927211010160E0000000000000076
:10009E00000000000000000000E018040200000054
:1000AE0000071820400000020418E0000000004085
:1000BE00201807000000404080F0804040000202FF
:1000CE00010F01020200000000F00000000001011B
:1000DE00011F01010100000000000000000080B0BF
:1000EE007000000000000000000000000000000191
:1000FE0001010101010100000000000000000030BC
:10010E003000000000000000000080601804006055
:10011E0018060100000000E010080810E000000FB3
:10012E00102020100F00001010F80000000000201A
:10013E00203F202000000070080808887000003062
:10014E00282422213000003008888848300000180A
:10015E00202020110E000000C02010F80000000723
:10016E000424243F240000F8088888080800001999
:10017E00212020110E0000E0108888180000000FCA
:10018E00112020110E0000380808C83808000000A1
:10019E00003F000000000070880808887000001CF6
:1001AE00222121221C0000E010080810E0000000AF
:1001BE00312222110F00000000C0C000000000001C
:1001CE000030300000000000008000000000000041
:1001DE008060000000000000804020100800000138
:1001EE0002040810200040404040404040000404FB
:1001FE0004040404040000081020408000000020C5
:10020E00100804020100007048080808F000000001
:10021E00003036010000C030C828E810E000071892
:10022E00272423140B000000C038E0000000203CFF
:10023E0023020227382008F8888888700000203FA3
:10024E00202020110E00C0300808080838000718BA
:10025E0020202010080008F808080810E000203FB1
:10026E00202020100F0008F88888E8081000203F92
:10027E0020202320180008F88888E8081000203F66
:10028E00200003000000C0300808083800000718DE
:10029E002020221E020008F808000008F808203F5F
:1002AE00210101213F20000808F808080000002065
:1002BE00203F2020000000000808F8080800C08039
:1002CE0080807F00000008F888C028180800203FB2
:1002DE0020012638200008F8080000000000203F0A
:1002EE0020202020300008F8F800F8F80800203F01
:1002FE00003F003F200008F830C00008F808203FFB
:10030E00200007183F00E01008080810E0000F104A
:10031E00202020100F0008F808080808F000203FE1
:10032E00210101010000E01008080810E0000F187C
:10033E00242438504F0008F8888888887000203FA1
:10034E002000030C302000708808080838000038A0
:10035E00202121221C00180808F8080818000000A7
:10036E00203F2000000008F808000008F808001FD1
:10037E00202020201F000878880000C838080000C0
:10038E0007380E010000F80800F80008F800033CDA
:10039E000700073C030008186880806818082030A2
:1003AE002C03032C30200838C800C8380800000081
:1003BE00203F2000000010080808C8380800203828
:1003CE00262120201800000000FE0202020000007C
:1003DE00007F40404000000C30C0000000000000D4
:1003EE0000010638C00000020202FE0000000040BC
:1003FE0040407F00000000000402020204000000E2
:10040E0000000000000000000000000000008080DE
:10041E0080808080808000020204000000000000C6
:10042E0000000000000000008080808000000019A5
:10043E00242222223F2008F8008080000000003F86
:10044E00112020110E000000008080800000000EA0
:10045E00112020201100000000808088F800000E7E
:10046E00112020103F200000808080800000001F9F
:10047E00222222221300008080F088888818002013
:10048E00203F202000000000808080808000006BD4
:10049E0094949493600008F8008080800000203FC0
:1004AE00210000203F2000809898000000000020CE
:1004BE00203F20200000000000809898000000C01F
:1004CE008080807F000008F8000080808000203F40
:1004DE0024022D302000000808F800000000002043
:1004EE00203F202000008080808080808000203F80
:1004FE0020003F20003F8080008080800000203F51
:10050E00210000203F200000808080800000001F1E
:10051E00202020201F00808000808000000080FFAF
:10052E00A12020110E000000008080808000000EAF
:10053E00112020A0FF8080808000808080002020FD
:10054E003F21200001000000808080808000003369
:10055E00242424241900008080E080800000000004
:10056E00001F202000008080000000808000001FFF
:10057E00202020103F20808080000080808000019D
:10058E000E300806010080800080008080800F30D1
:10059E000C030C300F000080800080808000002053
:1005AE00312E0E312000808080000080808080817E
:1005BE008E701806010000808080808080000021EF
:1005CE00302C2221300000000000807C020200004E
:1005DE000000003F404000000000FF00000000004F
:1005EE000000FF0000000002027C800000000040BE
:1005FE00403F00000000000601010202040400005A
:10060E000000000000000000FCFC4444444444444C
:10061E004444FCFC0000000000000000000000004C
:10062E0000000000000080C0FF3F04040404848426
:10063E008484FFFF000000000000000000000000A6
:10064E00000000000000000000FC04040404040488
:10065E00040404FC00000000000000000000000084
:10066E000000000000000000007F41414141414177
:10067E004141817F000000000000000000000000EA
:10068E0000000000000000006894949494949494E8
:10069E009494947800000000000000000000000018
:1006AE000000000000000088849293929292FF92C4
:1006BE009292929280000000000000000000000064
:1006CE000000000000000008FC484848FC0800F844
:1006DE0044444444F8000000000000000000000004
:1006EE0000000000000000886F0909096F88D03FE4
:1006FE0004048404FF00000000000000000000005D
:10070E0000000000000000000000000000000000DB
:10071E0000000000000000000000000000000000CB
:10072E0000000000000000010101010101010101B2
:10073E0001010101010000000000000000000000A6
:10074E00000000000000000008080808080808085B
:10075E00080808080000000000000000000000006B
:10076E00000000000000002020202020202020205B
:10077E0020202020200000000000000000000000CB
:10078E00000000000000000008080808080808081B
:10079E00080808080000000000000000000000002B
:1007AE0000000000000000404141414141414141F3
:1007BE0041414140400000000000000000000000E8
:1007CE000000000000000000FC040404FC0404FC13
:1007DE00040404FC00000000000000000000000003
:1007EE000000000000000000FF888886818080875E
:1007FE00888888FF00000000000000000000000054
:10080E00000000000000000484848484FC8484843E
:10081E00848484040000000000000000000000003A
:10082E000000000000000080808080FE81808080BB
:10083E008080FF808080000000000000000000002B
:10084E00000000000000004040404040404C70401E
:10085E00C0404040400000000000000000000000CA
:10086E00000000000000008040300C03000000007B
:10087E0001060830C000000000000000000000006B
:10088E00000000000000000000FC04040404040446
:10089E00040404FC00000000000000000000000042
:1008AE000000000000000000007F41414141414135
:1008BE004141817F000000000000000000000000A8
:1008CE000000000000001060028C0000FE92929268
:1008DE009292FE00000000000000000000000000E8
:1008EE0000000000000004047E01407E42427E4271
:1008FE007E42427E4000000000000000000000002A
:10090E000000000000000000FC242424FC25262406
:10091E00FC2424240400000000000000000000005D
:10092E0000000000000040308F80844C55252525A6
:10093E00554C808080000000000000000000000088
:10094E00000000000000060909E6F80C040202028D
:10095E000202041E00000000000000000000000063
:10096E00000000000000000000071F302040404043
:10097E0040402010000000000000000000000000B9
:10098E0000000000000000808080808080808080D9
:10099E008080808000000000000000000000000049
:1009AE000000000000000000000000000000000039
:1009BE000000000000000000000000000000000029
:1009CE00000000000000004020108C888888F88805
:1009DE008888888888000000000000000000000061
:1009EE000000000000000008080F08080808FF08B3
:1009FE0008080808080000000000000000000000C1
:100A0E00000000000000000000001020408000C028
:100A1E00300E00000000000000000000000000008A
:100A2E0000000000000000404020201008040304D5
:100A3E000810000000000000000000000000000090
:100A4E000000000000000000000000000000000098
:100A5E0000C0300C03000000000000000000000089
:100A6E000000000000000000001008041820100C08
:100A7E000300000000000000000000000000000065
:060A8E0000000000000062
:101BCF00EF4E60157D087C07ED1DAA0470011C4ABD
:091BDF0070F6EF1F70EA1E80E7AA
:011BE80022DA
:091CA900D2A7D2A6C2A6C2A7224E
:07000300D2A7C2A6D2A6227B
:0B1C6100121AB3121C6CAF04121AB36D
:051C6C00D2A7C2A7226F
:071AAC00AC07121CA97F78B2
:101AB300C2A7E4FEAD07530580BD8004D2A6800211
:0E1AC300C2A6EF25E0FFD2A7C2A70EBE08E61E
:011AD10022F2
:0E1C7100121AAC121C6CE4FF121C610200037C
:0E1C7F00121AAC121C6C7F40121C6102000392
:101A2E00E924B0FFE433FEE4FDFC121A49E4FDFCA8
:0B1A3E00FFFE121A497F10E4FDFCFEC1
:101A4900AB07AA06ED4C6003021C7FAF03121C71A1
:011A5900226A
:021AF7008F6EF0
:101AF900E4F9121A2EE4F56FAF6E7E007D017C00C9
:101B0900121A49056FE56FC3948040EC09B908E2E0
:011B190022A9
:101B7B00D3EF9400EE940040147D657C18ED1D703E
:0D1B8B00011CED4C70F7EF1F70E61E80E3AB
:011B9800222A
:101C1800EF1FAA0670011E4A600BE4FDEDC3947B1A
:051C280050EE0D80F7F5
:011C2D002294
:101A5A00A907ED24B0FFE433FEE4FDFC121A49E9BC
:101A6A0054F0C4540F7E004410FFE4FDFC121A49DE
:0C1A7A00E9540FFF7E00E4FDFC021A4955
:101C01007F8D121A45E4FDFC7F14FE121A49E4FD92
:071C1100FC7FAFFE021A493F
:101C5000E4FDFC7F8D121A3FE4FDFC7FAEFE021A0C
:011C6000493A
:101B5B00E4F9121A2EE4F5087D017C00E4FFFE1275
:0F1B6B001A490508E508C3948040ED09B908E35D
:011B7A002248
:101B1A00E4F9121A2EE4F5707D017C007F017E0043
:101B2A00121A490570E570C3948040EC09B908E2BD
:011B3A002288
:04126D008F128D133C
:10127100E4F516F9EB24E0F516E512D3947F400767
:10128100E4F51205130513E51564107069AD13AF8C
:1012910012121A5AE4F975F010E516A429F582E440
:1012A10035F0F583E5822424F582E5833400F58366
:1012B100E493FF7E007D017C00121A4909B908D62A
:1012C100E51304FDAF12121A5AE4F975F010E51690
:1012D100A429F582E435F0F583E582242CF582E535
:1012E100833400F583E493FF7E007D017C00121AB4
:1012F1004909B908D622AD13AF12121A5AE4F9E519
:101301001675F006A4241EF582E43400F583E58207
:1013110029F582E43583F583E493FF7E007D017C2A
:0813210000121A4909B906D7B0
:0113290022A1
:041BE9008F71A9054A
:101BED007F017E00AD0119ED6009AD717C00120C15
:031BFD00C180F1B3
:011C000022C1
:081632008F178D188A198B1A1D
:10163A00E4F51FF51DE51DC3951B5065C3E51B9514
:10164A001D14FD7F0A121BE9AC19AD1ACFCDCFCEFE
:10165A00CCCE120CD37C007D0A120CD38D1EE51F52
:10166A007023E51B14FFE51DC39F5019E51E701278
:10167A00E51CC313851DF0A42517FF851C157B20C7
:10168A008016751F01E51CC313851DF0A42517FFDD
:10169A00E51E2430FB851C15AD1812126D051D8040
:0116AA0094AB
:0116AB00221C
:0A1852008F678D688B698A6A896BC5
:10185C00E4F56DAB69AA6AA96B856D82758300127C
:10186C000C94FB6020856C15AD68AF6712126D741B
:10187C00082567F567D394784007E4F56705680594
:05188C0068056D80CE2F
:011891002234
:061720008F0F8D108B11EC
:10172600E4F512121A5AE4F975F040E511A42414EE
:10173600F582E5F03406F583E58229F582E4358302
:10174600F583E493FF7E007D017C00121A490512A1
:1017560009B910D4E51004FDAF0F121A5AE4F97551
:10176600F040E511A42434F582E5F03406F583E56E
:101776008229F582E43583F583E493FF7E007D01BB
:0B1786007C00121A49051209B910D4AA
:011791002235
:041792008F5C8B5E7F
:10179600E4F563F564E55F5407700BE55F13131317
:1017A600541FF566800AE55F131313541F04F5668C
:1017B6008D66E566C3955F503BAD66AF5C121A5AFF
:1017C600855C65E565C3955E5026AB60AA61A96236
:1017D6000564E564AE637002056314F5828E8312B8
:1017E6000C94FF7E007D017C00121A49056580D3AA
:0417F600056680BE46
:0117FA0022CC
:10118D00E4FDFC7FAEFE121A38E4FDFC7F40FE123A
:10119D001A49E4FDFC7FB0FE121A49E4FDFC7F8183
:1011AD00FE121A49E4FDFC7FFFFE121A49E4FDFC14
:1011BD007FA1FE121A49E4FDFC7FA6FE121A49E436
:1011CD00FDFC7FA8FE121A49E4FDFC7F3FFE121ABA
:1011DD0049E4FDFC7FC8FE121A49E4FDFC7FD3FEF5
:1011ED00121A49E4FDFCFFFE121A49E4FDFC7FD5FD
:1011FD00FE121A49E4FDFC7F80FE121A49E4FDFC43
:10120D007FD8FE121A49E4FDFC7F05FE121A49E44F
:10121D00FDFC7FD9FE121A49E4FDFC7FF1FE121A86
:10122D0049E4FDFC7FDAFE121A49E4FDFC7F12FE53
:10123D00121A49E4FDFC7FDBFE121A49E4FDFC7F26
:10124D0030FE121A49E4FDFC7F8DFE121A49E4FDB1
:10125D00FC7F14FE121A49E4FDFC7FAFFE021A4911
:100A9400EC4D6011E8497017ED33EC3304600DE45C
:100AA400FCFFFEFD22E933E8330470F8020C441223
:100AB4000C0F58046009E4CC248150062850090224
:100AC4000C4E284003020C4BC0E0EB4A7044B98042
:100AD40006D0E0FB020C3AEF4E701CBD8008EBFF21
:100AE400EAFEE9FD80EBE98DF0A4FEE5F0020B7D62
:100AF400E9CDF9EAFEEBFFEF89F0A4FCE5F0CE893D
:100B0400F0A42EFFE435F0CD89F0A42DFEE435F0F9
:100B14008067EF4E7005BD80D780C3EF8BF0A4AC27
:100B2400F0EE8BF0A42CFCE435F0F8EF8AF0A42C62
:100B3400E5F038FCE433CB8DF0A42CFCE5F03BF875
:100B4400EE8AF0A42CFCE5F038F8E433CF89F0A465
:100B54002CFCE5F038CF3400CE89F0A42FFFE5F06B
:100B64003EFEE433C98DF0A42EFEE5F039CD8AF0C3
:100B7400A42FFFE5F03EFEE43DFD33D0E0FB50073B
:100B84000BBB000F020C4EEC2CFCEF33FFEE33FEDC
:060B9400ED33FD020C260A
:100B9A0075F020800E75F010800575F0087D007ED6
:100BAA00007F003392D530D503120D5EEC3340102E
:100BBA00EF33FFEE33FEED33FDEC33FCD5F0ED22DF
:0E0BCA00E5F0247EA2D513CC92E7CDCEFF221B
:100BD800EDD2E7CD33EC3392D524814006E4FFFE15
:100BE800FDFC22FCE4CFCECDCC24E0501174FF8074
:100BF800EDC3CC13CCCD13CDCE13CECF13CF047011
:070C0800F030D5DE020D5EA5
:100C0F00E9D2E7C933E833F892D5EDD2E7CD33EC2B
:070C1F0033FC5002B2D522A4
:100C2600EC30E7100FBF000C0EBE00080DBD00042F
:100C36000BEB6014A2D5EB13FCED92E7FD2274FFDB
:100C4600FCFDFEFF22E480F8A2D574FF13FC7D8034
:030C5600E480EF48
:10153400020F4EE493A3F8E493A34003F68001F270
:1015440008DFF48029E493A3F85407240CC8C333B8
:10155400C4540F4420C8834004F456800146F6DF87
:10156400E4800B01020408102040809017FBE47E05
:10157400019360BCA3FF543F30E509541FFEE4937C
:10158400A360010ECF54C025E060A840B8E493A343
:10159400FAE493A3F8E493A3C8C582C8CAC583CA6E
:1015A400F0A3C8C582C8CAC583CADFE9DEE780BE26
:011851000096
:100C5900C2D530F707B2D563F0FF05F030E70CB223
:100C6900D5F4048463F0FF05F080018430D502F4E3
:020C7900042253
:100C7B00BB010689828A83E0225002E722BBFE0277
:090C8B00E32289828A83E49322AA
:100C9400BB010CE58229F582E5833AF583E0225015
:100CA40006E92582F8E622BBFE06E92582F8E2225F
:0D0CB400E58229F582E5833AF583E4932279
:100CC100EF8DF0A4A8F0CF8CF0A428CE8DF0A42E47
:020CD100FE2201
:100CD300BC000BBE0029EF8DF084FFADF022E4CC05
:100CE300F875F008EF2FFFEE33FEEC33FCEE9DECCE
:100CF300984005FCEE9DFE0FD5F0E9E4CEFD22ED14
:100D0300F8F5F0EE8420D21CFEADF075F008EF2F5D
:100D1300FFED33FD4007985006D5F0F222C398FD4E
:050D23000FD5F0EA22EB
:100D2800C2D5EC30E709B2D5E4C39DFDE49CFCEEE6
:100D380030E715B2D5E4C39FFFE49EFE120CD3C37F
:100D4800E49DFDE49CFC8003120CD330D507C3E47A
:060D58009FFFE49EFE2255
:0E0D5E00C3E49FFFE49EFEE49DFDE49CFC22A6
:00000001FF
